:1000000000000320D1010000B50400006D040000D1
:100010006D0400006D0400006D0400006D0400001C
:100020006D0400006D0400006D040000B5040000C4
:10003000B50400006D040000A5110000AD11000022
:10004000B5040000B5040000B5040000B5040000CC
:10005000B5040000B5040000B5040000B5040000BC
:10006000B5040000B5040000B5040000B5040000AC
:10007000B5040000B5040000B5040000B50400009C
:10008000B5040000B5040000B5040000B50400008C
:10009000B5040000B5040000B5040000B50400007C
:1000A000B5040000B5040000B5040000B50400006C
:1000B000B5040000B5040000B5040000B50400005C
:1000C000B5040000B5040000B5040000B50400004C
:1000D000B5040000B5040000B5040000B50400003C
:1000E000B5040000B5040000B5040000B50400002C
:1000F000B5040000B5040000B5040000B50400001C
:10010000B5040000B5040000B5040000B50400000B
:10011000B5040000450C0000B5040000B504000063
:10012000B5040000B5040000B5040000B5040000EB
:10013000B5040000B5040000B5040000B5040000DB
:10014000B5040000B5040000B5040000B5040000CB
:10015000B5040000B5040000B5040000B5040000BB
:10016000B5040000B5040000B5040000B5040000AB
:10017000B5040000B5040000B5040000B50400009B
:10018000B5040000B5040000B5040000B50400008B
:10019000B5040000B5040000B5040000B50400007B
:1001A000B5040000B5040000B5040000B50400006B
:1001B000B5040000B5040000B5040000B50400005B
:1001C000B5040000B5040000B5040000B50400004B
:1001D0005F4B4CF2205210B5DA814DF62812DA81CD
:1001E00000BF00BF00F06AF95A4B4FF030621A634B
:1001F000594A9A63594ADA634FF0E0234FF4700288
:10020000C3F8882D03F5E823554A1A60554B9A78B0
:10021000110703D59A7842F008029A70524B53485E
:10022000AA221A70524BDA1C121AC11E22F00302C3
:10023000994288BF00224F4901F040F84E4B4F4889
:10024000DA1C121AC11E22F00302994288BF002252
:10025000002101F075F94A494A484FF4E87201F06B
:100260002DF8494B494A802103F8011B9342FBD1E9
:100270004FF0E023434AC3F8082D454B8A221A70F9
:10028000A3F5805324225A70A0221A709A799207FB
:10029000FCD59A79D406FCD43E4A937903F00C033A
:1002A000082BFAD1304B60225A70DA78802AFCD1C0
:1002B000384B01221A715D225A719A799006FCD549
:1002C0009A795106FCD5234A33495164002191643F
:1002D000202119702F498B7903F00C030C2BFAD1D4
:1002E0002E4B53602E4A136913F4807303D153616C
:1002F0004FF4A85313614FF0E0232A4A5A610022B9
:100300009A6107221A61284AC3F8202D62B600F0CC
:100310001FF9234B5B69DA0705D5244800F00CF977
:10032000234B244ADA61244B1B785B0609D5204C09
:10033000204BE2699A4204D11C4800F0FDF80023EA
:10034000E36100F0C1F801F04DF900F087F8FEE735
:100350000020054000800440823F04000100002B83
:100360000300008500D0074000E007403007FF1F72
:10037000E007FF1F78170000D00AFF1FE007FF1FEC
:10038000000000000002FF1F00E400E064E400E061
:10039000005006400040064000000602C010070062
:1003A00000D003401FBF0200000020209D025769BB
:1003B00000E00340A5C3945A00F00740FFFFFFFF91
:1003C000FFFFFFFFFFFFFFFFFFFFFFFFFFFFFFFF3D
:1003D000FFFFFFFFFFFFFFFFFFFFFFFFFFFFFFFF2D
:1003E000FFFFFFFFFFFFFFFFFFFFFFFFFFFFFFFF1D
:1003F000FFFFFFFFFFFFFFFFFFFFFFFFFFFFFFFF0D
:10040000FFFFFFFFFFFFFFFFFFFFFFFFDEF9FFFF23
:100410000548064B1B1AD90F01EBA301491002D066
:10042000034B03B118477047E007FF1FE007FF1FAA
:100430000000000008B5054B1BB105490548AFF3A6
:100440000080BDE80840FFF7E3BF00BF00000000E8
:10045000E007FF1F781700007047704708B5FFF7E7
:10046000FBFFFFF7FAFF00F0FFFDFAE708B5104BBE
:100470005B6B13F4802F11D10D4B5B6B13F4806F0A
:100480000FD10B4B5B6B13F4006F0DD1084B5B6B03
:1004900013F4805FEBD000F00DF8E8E700F0D2FB3A
:1004A000EAE700F007F8ECE700F004F8EEE700BF39
:1004B0000080044008B5FFF7D9FFFFFF014B102271
:1004C0001A807047002005407047FFFF0A4BDB7819
:1004D000DBB2802B01D000207047084B084A5A64D9
:1004E00003F5583300225A70034BDB78DBB2802BC4
:1004F000FAD00120704700BF00E0074000800440B0
:1005000000002822094BDB78DBB2012B01D0002050
:100510007047064B60225A70044BDB78DBB2802BAD
:10052000FAD1034B034A5A640120704700E00740A8
:100530000080044000000602034B00225A615A600A
:10054000186010225A61704700D003407047FFFFC7
:1005500030B583B04FF0E0234FF00062C3F80421C0
:100560004FF08052C3F804214FF00052C3F8042129
:100570004FF08042C3F804214FF00042C3F8042139
:100580002A49002048604EF6FF758D602823CB6015
:100590004B61CB614B62CB624B63CB634B64244AB0
:1005A000D3605361D3615362D3625363D3635364A3
:1005B00009240C6001F5805148608D60CB604B616F
:1005C0000C6001F5FE2148608D60CB604B610C60D2
:1005D00050609560D36053611460A2F5E222D16A45
:1005E00041F40071D162516841F00071516002F52F
:1005F0000122506047F6FF719160D3605361082378
:10060000136000F0DBFDFFF7A1FF0A4B1B680093AE
:10061000009B132BF9D900F055FC064B1B68019386
:10062000019BB3F5967FF8D303B030BD0080034043
:1006300000900B40F807FF1F024B0F2283F8C020E9
:10064000704700BF002007400D4B1B7843F0020CA1
:100650000C4A02EBCC0250600B4A127872B1C820EF
:1006600040EA0141074840F83C1082F00102064987
:100670000A7083F00103024A137070478820EFE785
:100680007C08FF1F0000FF1F7D08FF1F70B5A64BF1
:100690001B8840F28162934269D8B3F5D06F80F035
:1006A0008681B3F5817F00F0698119D940F2023269
:1006B000934232D19C4B9B8803F07F03042B00F3C1
:1006C0007381994A5288002A40F06E81974911F847
:1006D000232042F0020201F8232000231C4622E0DE
:1006E000802B00F01781822B40F07A818E4B9B8803
:1006F00003F07F03042B00F313818D4A0021117056
:1007000051708A4A12F8233013F0020F00F06B8107
:10071000874C01232370022305E0B3F5A06F40F05E
:100720005F8100231C46804AD5889D4200D31D4628
:10073000402D00F25E812E4631462046FFF784FFB1
:100740003444AD1B01D13F2E10D9402D00F253810E
:100750002E4631462046FFF777FF3444AD1B01D1CA
:100760003F2E03D9734B1C60734B1D8070BD42F24A
:1007700021029342FAD013D942F2212293421DD191
:10078000694B9B88002B40F031816C4B1A686C4B95
:100790001A60654B9A786B4B1A7000231C46C2E7AF
:1007A000B3F5086F00F0B080B3F5106F40F018811A
:1007B0005D4B9A78644B1A70042408E042F22132AF
:1007C000934240F00D8100231C46ACE70134132C0A
:1007D0000DDC5E4B53F8343013F0800FF6D05B4BDA
:1007E00003EBC4035868083800F0E0FBEEE700258F
:1007F0002DE0446800F0DAFB20460028F9D1002300
:10080000534A42F82530534A42F82530524B53F8A8
:10081000250003E0446800F0C9FB20460028F9D118
:1008200000234D4A42F825304C4A42F825304C4AC4
:1008300022F815304B4B5B5D023B032B06D8DFE8FB
:1008400003F0020C020C474B00225A550135032DD0
:1008500007DC3F4B53F82500CFE7424B01225A55A6
:10086000F4E7414B00221A700125404C404E20E035
:10087000AB00364A002142F833103B4A137801336B
:1008800013702DE0AB0043F00103304A002142F821
:100890003310354A137801331370AB0043F0020074
:1008A0002A4A002142F8301043F0030342F8331083
:1008B0000135042D25DC14F8013B06F8043B13F048
:1008C000080FEAD000F052FB03460028D0D0AA005F
:1008D00008331E4901EB45104360264841F83200B9
:1008E00000F044FB02460028CCD0AB0043F00103EB
:1008F0000832164901EBC30042601F4A41F8332019
:10090000CBE700231C460EE70F4B1B78084C2370E7
:10091000012308E7064C002323706370022302E7DB
:10092000FFF78AFE22E700BFAC08FF1FC020074088
:100930008408FF1F8008FF1F7E08FF1FF807FF1FA6
:100940000009FF1FFC08FF1FD808FF1F0000FF1F42
:100950008C08FF1F9C08FF1FB408FF1FC408FF1F5F
:10096000DC08FF1FD408FF1FE408FF1F5C1700000E
:10097000C420074088004000C80040001F4B9B88EF
:1009800003F07F03042B0CDC1C4A52884AB91C4933
:1009900011F8232022F0020201F8232000231C4634
:1009A000C1E6FFF749FEE1E6FFF746FEDEE6154B3E
:1009B00002E02378B7E60C335C6874B10F4A5288C2
:1009C00019888A42F7D10D49888859888842F2D11E
:1009D000120A032AEDD01B89A5E6FFF72DFEC5E616
:1009E000FFF72AFEC2E60223074C9CE600231C46C2
:1009F00099E64026A0E64026ABE600BFAC08FF1F04
:100A0000C0200740081700008408FF1F38B584087D
:100A1000394D05EBC40255F83430C3F383035268F3
:100A2000092B44D00CD8013B012B21D8334B19881A
:100A300042F22103994220D0314B45F8343017E07F
:100A40000D2B15D111682D4B196052685A602C4B33
:100A500045F8343000232B4A1360274A1361936111
:100A60000124294B1C70FFF711FE284B83F894409A
:100A7000264B012283F8942038BD204B9B889BB1E4
:100A800000210846FFF7E0FDD6E712F8010B03F856
:100A9000010B01310629F8DD1D4B1B68862BEFD1B8
:100AA0001C4B0F221A70EBE7194B0021F2E7154B94
:100AB0001C68A4B1184B1D88402D00D9402529463B
:100AC0002046FFF7C1FD2C44134A13885B1B9BB2E1
:100AD000138013B9402D00D000240A4B1C60074B33
:100AE0001B88B3F5A06FC3D1044B00225A709A78CB
:100AF000064B83F89820BBE70000FF1FAC08FF1FE0
:100B0000C80040008008FF1F7D08FF1F002007402D
:100B1000F408FF1FD908FF1F7E08FF1F10B572B62B
:100B20001D4B01220EE008301C4B03EBC10250604C
:100B30001B4A43F831201B4A1378013B137062B6FD
:100B400028E00132042A1FD813F8011B11F0080F06
:100B5000F7D09100114C54F83140002CE3D041F013
:100B600001010E4C54F83140002CEAD108300B4BF7
:100B700003EBC10250600C4A43F83120094A137854
:100B8000013B137062B605E062B6064B00221A7094
:100B900000F00CFA10BD00BF5C1700000000FF1F42
:100BA00088004000E408FF1FC8004000820042F0B7
:100BB00002021F4B03EBC2030138032836D810B4DE
:100BC00072B61C4A125C032A09D8DFE802F0190247
:100BD0002B050833022214E00833042211E0164BDF
:100BE00053F820303BB9144B43F82010134B43F813
:100BF000201062B613E0114B53F820305960F5E72E
:100C000003220C4C225401F108025A6013F0080F21
:100C10000AD0C822098842EA01421A6062B65DF829
:100C2000044B70470522ECE78822F3E7704700BFCA
:100C30000000FF1FD408FF1FB408FF1FC408FF1FD8
:100C400000BEFFFFF8B50AE0FFF7FAFF00F0EAF98F
:100C500025E0FFF7DBFE8B4B082283F88020894BD1
:100C600093F88030DCB213F0040F1CD0864B1B7855
:100C7000ABB1864B1A7802F0FF032AB1013BDBB21D
:100C8000824A1370002BDFD0814B1A7802F0FF03E9
:100C90002AB1013BDBB27E4A1370002BD6D0794BD0
:100CA000042283F8802014F0080F00F0A480754B14
:100CB00093F89030D8B21B09CBD08608754D05EB60
:100CC000C6077A68A2F10801013BDCB210F0080FF8
:100CD0002ED155F836301B0C22F8083C002B00F0C2
:100CE0008180002322F8063C42F8043C6A4B53F80A
:100CF0002430002B68D0694B53F824305960674B7F
:100D000043F8241032F8083C654A32F814100B44BA
:100D100022F8143000F02AF9034600285AD008338C
:100D20007B6017F0080F53D05E4B45F8363092E7E2
:100D3000084600F03BF95C4B53F824304BB359683C
:100D4000594A42F8241003F108027A60574A125DAA
:100D5000032A06D8DFE802F0020F1317534A0321D3
:100D6000115517F0080F12D0C8221B8842EA03431E
:100D700045F836306FE74D4A02211155F1E74B4AED
:100D800005211155EDE7494A04211155E9E788226B
:100D9000EBE7464B1B5D022B10D009D8012B7FF6E9
:100DA0005AAF17F0080F0DD00322404B1A5552E7E7
:100DB000032BF6D13D4B01221A554CE73B4B002249
:100DC0001A5548E70222F0E7334B43F8241096E720
:100DD000374BAAE7002345F83630364A13780133FB
:100DE000137038E717F0080F03D02E4B45F8363054
:100DF00031E72F4BFAE714F0010F16D114F0800FF2
:100E000037D114F0020F08D01E4B93F88820D2B2CD
:100E100083F88820022283F8802014F0100F27D056
:100E2000184B102283F8802022E0164B022283F810
:100E300094200021204A1170164A1D4810601F4C52
:100E4000546090601E48D060116191610D2283F85A
:100E5000C020FF2283F8882083F8802083F8981030
:100E600083F88C209F2283F88420012283F8942029
:100E7000F8BD044B0D2283F8C020802283F8802027
:100E8000BFE700BF00200740D808FF1FD908FF1F99
:100E90000409FF1F0000FF1F8C08FF1F9C08FF1F95
:100EA000DC08FF1FC8004000B408FF1FD408FF1F64
:100EB00088004000E408FF1F7C08FF1FFC07FF1F9D
:100EC0003C08FF1F08B500F0CFFA002307E0224AD4
:100ED000002142F8331002EBC30251600133132B9F
:100EE000F5DD1E4A536B43F480235363A2F56C3245
:100EF000D2F8003843F04073C2F800381849032391
:100F000081F84430A02381F84030134AC2F307200F
:100F1000144B83F89C00C2F3074083F8B000120E14
:100F200083F8B420FF2283F8802083F888201A7485
:100F3000012283F894200020087083F884200A4B53
:100F4000702283F835204FF0E0234FF40012C3F8ED
:100F5000042110230B7208BD0000FF1F0080044015
:100F6000002107400020074000E400E072B60D4B6E
:100F70001A68B2FA82F30B2B10D84FF00041D94017
:100F800022EA010207490A6062B603EBC303DA00F2
:100F90000549881800238B504360704762B60020D3
:100FA000704700BF3007FF1FD003FF1F08B50E4A70
:100FB000821A0E4BA3FB0213B2F5587F0FD21B0906
:100FC0000B4A127812B10B4A12784AB94FF000421C
:100FD000DA4072B608490B6813430B6062B608BD6D
:100FE000FFF79CFDFBE700BFD003FF1F398EE338FE
:100FF000E408FF1FD808FF1F3007FF1F10B5074B7D
:101000009C88074B1B681BB11A885B88D31A1C4449
:101010000CB1204610BD00F027F8FAE7DC08FF1FEE
:10102000E808FF1F08B50D4B1B7853B90C4B196826
:1010300041B14B880B800420FFF7B8FD084B00221C
:101040001A6008BDFFF792FF014618B10420FFF7B0
:10105000ADFDF6E7034B01221A70F2E7EC08FF1F23
:10106000F008FF1F0409FF1F38B5354B1B78A3B1EB
:10107000344A14788CB90121117013F0010F0DD18D
:101080002F4B1B7813F0020F1AD12E4B00221A702F
:101090002B4B1B7813F0040F22D138BDFFF7AEFFA6
:1010A00048B9294B1B78002BEAD0254A137823F046
:1010B00001031370E4E700F0D5F9F2E70134E4B27C
:1010C000224B1B78A342E0D9214B53F824502B68C4
:1010D0001B69284698470028F0D02B699847EDE710
:1010E0001C4B1B68002BD8D0EFF30583002BD4D109
:1010F000EFF3108272B6174B1868A0B1164B1B782D
:10110000ABB9154B01211970436912490B6093B1BA
:101110000021996102B962B6002444778368984738
:101120000D4B1C70B9E7002AB7D162B6B5E7002AAB
:10113000B3D162B6B1E7094B00211960EAE700BFFD
:101140003407FF1F0509FF1F041700003409FF1FA4
:101150001C09FF1F0809FF1F1409FF1F1809FF1FA3
:1011600008B507E00D4B0021196010E0002343771C
:1011700083689847EFF3108272B6094B186850B134
:10118000436907490B60002BECD000219961002ACC
:10119000ECD162B6EAE702B962B608BD0C09FF1FDE
:1011A0001009FF1F08B5FFF7DBFF08BD024A1368EF
:1011B00001331360704700BFF807FF1F394B6022EF
:1011C0001A70E1225A70384B1B78082B0DD00A2B6D
:1011D0002AD00C2B32D0354B5D2199601222DA6077
:1011E00003F500239960DA6008E0304B2121996013
:1011F0001322DA6003F500239960DA602C4B1B7828
:1012000033B30123294A136202F500221362294BEA
:101210001B78012B23D9042B2BD88423234A536218
:1012200002F50022536220E0204B392199601322FD
:10123000DA6003F500239960DA60DFE71B4B3521A4
:1012400099601222DA6003F500239960DA60D5E72D
:101250000023164A136202F500221362D7E78023A7
:10126000124A536202F500225362134B01221A7094
:101270007047082B06D885230C4A536202F50022DA
:101280005362F2E7102B06D88623084A536202F510
:1012900000225362E9E78723044A536202F50022E1
:1012A0005362E2E7004007403507FF1F00B00340EC
:1012B0003509FF1F3607FF1F3609FF1F01B441EA3A
:1012C000000313F003036FD1403A41D351F8043BBC
:1012D00040F8043B51F8043B40F8043B51F8043B10
:1012E00040F8043B51F8043B40F8043B51F8043B00
:1012F00040F8043B51F8043B40F8043B51F8043BF0
:1013000040F8043B51F8043B40F8043B51F8043BDF
:1013100040F8043B51F8043B40F8043B51F8043BCF
:1013200040F8043B51F8043B40F8043B51F8043BBF
:1013300040F8043B51F8043B40F8043B51F8043BAF
:1013400040F8043B51F8043B40F8043B403ABDD21E
:10135000303211D351F8043B40F8043B51F8043BC0
:1013600040F8043B51F8043B40F8043B51F8043B7F
:1013700040F8043B103AEDD20C3205D351F8043B4F
:1013800040F8043B043AF9D204320AD0D2071CBF19
:1013900011F8013B00F8013B03D30B7803704B7845
:1013A000437001BC704700BF0C2A4AD310F00303FE
:1013B00011D0C3F10403D21ADB071CBF11F8013BA3
:1013C00000F8013B07D311F8013B00F8013B11F88D
:1013D000013B00F8013B11F003033FF475AF30B45B
:1013E000043AC91AC3F1040C51F8044B022B19D06A
:1013F000032B0BD0240A51F8043B1D0644EA0504D4
:1014000040F8044B1C46043AF4D216E0240E51F87E
:10141000043B1D0244EA050440F8044B1C46043A10
:10142000F4D20AE0240C51F8043B1D0444EA0504FC
:1014300040F8044B1C46043AF4D20432B1EB0C01E0
:1014400030BC043AA0D3013A11F8013B00F8013B4B
:10145000F9D20B7803704B7843708B78837001BCA2
:10146000704700BF7047FFFF10B584B072B6FFF73A
:101470002DF8184B70221A70174A5A6080221A7081
:10148000144B1B7813F0800FFAD0124BDC68FFF777
:1014900039F862B6114B9C4202D204EB84035C0023
:1014A0000A2201A9204600F01DF80023092B0BD8C1
:1014B00003F110026A4412F80C1C29B1084A02EB2D
:1014C000430251800133F1E701335B00044A13709A
:1014D00004B010BD00000240000007418096980053
:1014E000C407FF1F00B5864608464FF0000C0CE00D
:1014F000DBB23033DBB2614600F80C30BEFBF2F3F6
:1015000072450CD80CF1010C9E46BEFBF2F302FBB7
:1015100013E3092BECD9DBB23733DBB2EBE7013154
:101520000023435408E0C25C10F80C10C15400F8CA
:101530000C2001330CF1FF3C9C45F4DC5DF804FB0E
:10154000830730B548D0541E002A3FD0CAB20346A4
:1015500001E0013C3AD303F8012B9D07F9D1032C9C
:101560002DD9CDB245EA05250F2C45EA054536D9DA
:10157000A4F1100222F00F0C03F1200EE6444FEA12
:10158000121C03F1100242E9045542E902551032DF
:101590007245F8D10CF1010214F00C0F03EB0212AA
:1015A00004F00F0C13D0ACF1040323F00303043355
:1015B000134442F8045B9342FBD10CF003042CB1BA
:1015C000C9B21C4403F8011B9C42FBD130BD6446E8
:1015D0001346002CF4D1F9E703461446BFE71A4638
:1015E000A446E0E770B50D4E0D4D761BB61006D043
:1015F000002455F8043B01349847A642F9D1094E1E
:10160000094D761B00F0ACF8B61006D0002455F852
:10161000043B01349847A642F9D170BD6C17000015
:101620006C170000741700006C170000704700BFB3
:10163000704700BF024B13B1024800F005B8704775
:101640000000000055160000002301461A46184607
:1016500000F014B838B5074D074C2C1BA41005D06A
:10166000013C55F8043D9847002CF9D1BDE83840BD
:1016700000F080B800000000000000002DE9F047F5
:10168000DFF87CA00646DAF8000098460F4691463F
:10169000FFF7CCFF184B1C6824B365681F2D24DCB2
:1016A0005EB96B1C0235DAF80000636044F82570FF
:1016B000FFF7BEFF0020BDE8F08704EB85010123A2
:1016C000C1F88890D4F88821AB401A43022EC4F8A0
:1016D0008821C1F80881E4D1D4F88C211A43C4F8D8
:1016E0008C21DEE7054C1C60D7E7DAF80000FFF735
:1016F0009FFF4FF0FF30DEE73C09FF1F4009FF1F4F
:10170000DC07FF1F00FFFFFF000100007C07FF1F39
:1017100012000000000200003807FF1F4300000015
:10172000000300009007FF1F0000000001030904F0
:101730009407FF1F0000000002030904AC07FF1F0D
:101740000000000003030904C407FF1F000000009D
:101750000000000000000000000000000015191546
:10176000F8B500BFF8BC08BC9E46704735160000AF
:04177000350400003C
:04177400F8B500BF05
:10177800FFFFFFFF010A040009024300020100C045
:1017880032090400000102020100052400100105CD
:10179800240101010424020605240600010705822C
:1017A8000310004009040100020A000000070503B5
:1017B80002400000070584024000000012011001E9
:1017C80002000040C01683047702010203010000F2
:1017D8000403090418035400650065006E007300D3
:1017E80079006400750069006E006F0016035500EB
:1017F8005300420020005300650072006900610038
:101808006C0000000C030000000000000000000055
:101818000000000000000000000000003809FF1F61
:00000001FF
